{
  "_format": "hh-sol-artifact-1",
  "contractName": "BusinessCard",
  "sourceName": "contracts/BusinessCard.sol",
  "abi": [
    {
      "inputs": [
        {
          "internalType": "string",
          "name": "_baseURI",
          "type": "string"
        }
      ],
      "stateMutability": "nonpayable",
      "type": "constructor"
    },
    {
      "inputs": [
        {
          "internalType": "address",
          "name": "sender",
          "type": "address"
        },
        {
          "internalType": "uint256",
          "name": "tokenId",
          "type": "uint256"
        },
        {
          "internalType": "address",
          "name": "owner",
          "type": "address"
        }
      ],
      "name": "ERC721IncorrectOwner",
      "type": "error"
    },
    {
      "inputs": [
        {
          "internalType": "address",
          "name": "operator",
          "type": "address"
        },
        {
          "internalType": "uint256",
          "name": "tokenId",
          "type": "uint256"
        }
      ],
      "name": "ERC721InsufficientApproval",
      "type": "error"
    },
    {
      "inputs": [
        {
          "internalType": "address",
          "name": "approver",
          "type": "address"
        }
      ],
      "name": "ERC721InvalidApprover",
      "type": "error"
    },
    {
      "inputs": [
        {
          "internalType": "address",
          "name": "operator",
          "type": "address"
        }
      ],
      "name": "ERC721InvalidOperator",
      "type": "error"
    },
    {
      "inputs": [
        {
          "internalType": "address",
          "name": "owner",
          "type": "address"
        }
      ],
      "name": "ERC721InvalidOwner",
      "type": "error"
    },
    {
      "inputs": [
        {
          "internalType": "address",
          "name": "receiver",
          "type": "address"
        }
      ],
      "name": "ERC721InvalidReceiver",
      "type": "error"
    },
    {
      "inputs": [
        {
          "internalType": "address",
          "name": "sender",
          "type": "address"
        }
      ],
      "name": "ERC721InvalidSender",
      "type": "error"
    },
    {
      "inputs": [
        {
          "internalType": "uint256",
          "name": "tokenId",
          "type": "uint256"
        }
      ],
      "name": "ERC721NonexistentToken",
      "type": "error"
    },
    {
      "anonymous": false,
      "inputs": [
        {
          "indexed": true,
          "internalType": "address",
          "name": "owner",
          "type": "address"
        },
        {
          "indexed": true,
          "internalType": "address",
          "name": "approved",
          "type": "address"
        },
        {
          "indexed": true,
          "internalType": "uint256",
          "name": "tokenId",
          "type": "uint256"
        }
      ],
      "name": "Approval",
      "type": "event"
    },
    {
      "anonymous": false,
      "inputs": [
        {
          "indexed": true,
          "internalType": "address",
          "name": "owner",
          "type": "address"
        },
        {
          "indexed": true,
          "internalType": "address",
          "name": "operator",
          "type": "address"
        },
        {
          "indexed": false,
          "internalType": "bool",
          "name": "approved",
          "type": "bool"
        }
      ],
      "name": "ApprovalForAll",
      "type": "event"
    },
    {
      "anonymous": false,
      "inputs": [
        {
          "indexed": true,
          "internalType": "address",
          "name": "from",
          "type": "address"
        },
        {
          "indexed": true,
          "internalType": "address",
          "name": "to",
          "type": "address"
        },
        {
          "indexed": true,
          "internalType": "uint256",
          "name": "tokenId",
          "type": "uint256"
        }
      ],
      "name": "Transfer",
      "type": "event"
    },
    {
      "inputs": [
        {
          "internalType": "address",
          "name": "to",
          "type": "address"
        },
        {
          "internalType": "uint256",
          "name": "tokenId",
          "type": "uint256"
        }
      ],
      "name": "approve",
      "outputs": [],
      "stateMutability": "nonpayable",
      "type": "function"
    },
    {
      "inputs": [
        {
          "internalType": "address",
          "name": "owner",
          "type": "address"
        }
      ],
      "name": "balanceOf",
      "outputs": [
        {
          "internalType": "uint256",
          "name": "",
          "type": "uint256"
        }
      ],
      "stateMutability": "view",
      "type": "function"
    },
    {
      "inputs": [],
      "name": "baseTokenURI",
      "outputs": [
        {
          "internalType": "string",
          "name": "",
          "type": "string"
        }
      ],
      "stateMutability": "view",
      "type": "function"
    },
    {
      "inputs": [
        {
          "internalType": "uint256",
          "name": "tokenId",
          "type": "uint256"
        }
      ],
      "name": "getApproved",
      "outputs": [
        {
          "internalType": "address",
          "name": "",
          "type": "address"
        }
      ],
      "stateMutability": "view",
      "type": "function"
    },
    {
      "inputs": [
        {
          "internalType": "address",
          "name": "owner",
          "type": "address"
        },
        {
          "internalType": "address",
          "name": "operator",
          "type": "address"
        }
      ],
      "name": "isApprovedForAll",
      "outputs": [
        {
          "internalType": "bool",
          "name": "",
          "type": "bool"
        }
      ],
      "stateMutability": "view",
      "type": "function"
    },
    {
      "inputs": [
        {
          "internalType": "address",
          "name": "to",
          "type": "address"
        }
      ],
      "name": "mint",
      "outputs": [],
      "stateMutability": "nonpayable",
      "type": "function"
    },
    {
      "inputs": [],
      "name": "name",
      "outputs": [
        {
          "internalType": "string",
          "name": "",
          "type": "string"
        }
      ],
      "stateMutability": "view",
      "type": "function"
    },
    {
      "inputs": [],
      "name": "nextTokenId",
      "outputs": [
        {
          "internalType": "uint256",
          "name": "",
          "type": "uint256"
        }
      ],
      "stateMutability": "view",
      "type": "function"
    },
    {
      "inputs": [
        {
          "internalType": "uint256",
          "name": "tokenId",
          "type": "uint256"
        }
      ],
      "name": "ownerOf",
      "outputs": [
        {
          "internalType": "address",
          "name": "",
          "type": "address"
        }
      ],
      "stateMutability": "view",
      "type": "function"
    },
    {
      "inputs": [
        {
          "internalType": "address",
          "name": "from",
          "type": "address"
        },
        {
          "internalType": "address",
          "name": "to",
          "type": "address"
        },
        {
          "internalType": "uint256",
          "name": "tokenId",
          "type": "uint256"
        }
      ],
      "name": "safeTransferFrom",
      "outputs": [],
      "stateMutability": "nonpayable",
      "type": "function"
    },
    {
      "inputs": [
        {
          "internalType": "address",
          "name": "from",
          "type": "address"
        },
        {
          "internalType": "address",
          "name": "to",
          "type": "address"
        },
        {
          "internalType": "uint256",
          "name": "tokenId",
          "type": "uint256"
        },
        {
          "internalType": "bytes",
          "name": "data",
          "type": "bytes"
        }
      ],
      "name": "safeTransferFrom",
      "outputs": [],
      "stateMutability": "nonpayable",
      "type": "function"
    },
    {
      "inputs": [
        {
          "internalType": "address",
          "name": "operator",
          "type": "address"
        },
        {
          "internalType": "bool",
          "name": "approved",
          "type": "bool"
        }
      ],
      "name": "setApprovalForAll",
      "outputs": [],
      "stateMutability": "nonpayable",
      "type": "function"
    },
    {
      "inputs": [
        {
          "internalType": "bytes4",
          "name": "interfaceId",
          "type": "bytes4"
        }
      ],
      "name": "supportsInterface",
      "outputs": [
        {
          "internalType": "bool",
          "name": "",
          "type": "bool"
        }
      ],
      "stateMutability": "view",
      "type": "function"
    },
    {
      "inputs": [],
      "name": "symbol",
      "outputs": [
        {
          "internalType": "string",
          "name": "",
          "type": "string"
        }
      ],
      "stateMutability": "view",
      "type": "function"
    },
    {
      "inputs": [
        {
          "internalType": "uint256",
          "name": "tokenId",
          "type": "uint256"
        }
      ],
      "name": "tokenURI",
      "outputs": [
        {
          "internalType": "string",
          "name": "",
          "type": "string"
        }
      ],
      "stateMutability": "view",
      "type": "function"
    },
    {
      "inputs": [
        {
          "internalType": "address",
          "name": "from",
          "type": "address"
        },
        {
          "internalType": "address",
          "name": "to",
          "type": "address"
        },
        {
          "internalType": "uint256",
          "name": "tokenId",
          "type": "uint256"
        }
      ],
      "name": "transferFrom",
      "outputs": [],
      "stateMutability": "nonpayable",
      "type": "function"
    }
  ],
  "bytecode": "0x60806040523480156200001157600080fd5b506040516200266538038062002665833981810160405281019062000037919062000275565b6040518060400160405280600b81526020017f4964656e746974794e46540000000000000000000000000000000000000000008152506040518060400160405280600581526020017f49444e46540000000000000000000000000000000000000000000000000000008152508160009081620000b4919062000511565b508060019081620000c6919062000511565b5050508060079081620000da919062000511565b5050620005f8565b6000604051905090565b600080fd5b600080fd5b600080fd5b600080fd5b6000601f19601f8301169050919050565b7f4e487b7100000000000000000000000000000000000000000000000000000000600052604160045260246000fd5b6200014b8262000100565b810181811067ffffffffffffffff821117156200016d576200016c62000111565b5b80604052505050565b600062000182620000e2565b905062000190828262000140565b919050565b600067ffffffffffffffff821115620001b357620001b262000111565b5b620001be8262000100565b9050602081019050919050565b60005b83811015620001eb578082015181840152602081019050620001ce565b60008484015250505050565b60006200020e620002088462000195565b62000176565b9050828152602081018484840111156200022d576200022c620000fb565b5b6200023a848285620001cb565b509392505050565b600082601f8301126200025a5762000259620000f6565b5b81516200026c848260208601620001f7565b91505092915050565b6000602082840312156200028e576200028d620000ec565b5b600082015167ffffffffffffffff811115620002af57620002ae620000f1565b5b620002bd8482850162000242565b91505092915050565b600081519050919050565b7f4e487b7100000000000000000000000000000000000000000000000000000000600052602260045260246000fd5b600060028204905060018216806200031957607f821691505b6020821081036200032f576200032e620002d1565b5b50919050565b60008190508160005260206000209050919050565b60006020601f8301049050919050565b600082821b905092915050565b600060088302620003997fffffffffffffffffffffffffffffffffffffffffffffffffffffffffffffffff826200035a565b620003a586836200035a565b95508019841693508086168417925050509392505050565b6000819050919050565b6000819050919050565b6000620003f2620003ec620003e684620003bd565b620003c7565b620003bd565b9050919050565b6000819050919050565b6200040e83620003d1565b620004266200041d82620003f9565b84845462000367565b825550505050565b600090565b6200043d6200042e565b6200044a81848462000403565b505050565b5b8181101562000472576200046660008262000433565b60018101905062000450565b5050565b601f821115620004c1576200048b8162000335565b62000496846200034a565b81016020851015620004a6578190505b620004be620004b5856200034a565b8301826200044f565b50505b505050565b600082821c905092915050565b6000620004e660001984600802620004c6565b1980831691505092915050565b6000620005018383620004d3565b9150826002028217905092915050565b6200051c82620002c6565b67ffffffffffffffff81111562000538576200053762000111565b5b62000544825462000300565b6200055182828562000476565b600060209050601f83116001811462000589576000841562000574578287015190505b620005808582620004f3565b865550620005f0565b601f198416620005998662000335565b60005b82811015620005c3578489015182556001820191506020850194506020810190506200059c565b86831015620005e35784890151620005df601f891682620004d3565b8355505b6001600288020188555050505b505050505050565b61205d80620006086000396000f3fe608060405234801561001057600080fd5b50600436106101005760003560e01c806370a0823111610097578063b88d4fde11610066578063b88d4fde146102ab578063c87b56dd146102c7578063d547cfb7146102f7578063e985e9c51461031557610100565b806370a082311461022357806375794a3c1461025357806395d89b4114610271578063a22cb4651461028f57610100565b806323b872dd116100d357806323b872dd1461019f57806342842e0e146101bb5780636352211e146101d75780636a6278421461020757610100565b806301ffc9a71461010557806306fdde0314610135578063081812fc14610153578063095ea7b314610183575b600080fd5b61011f600480360381019061011a919061172a565b610345565b60405161012c9190611772565b60405180910390f35b61013d610427565b60405161014a919061181d565b60405180910390f35b61016d60048036038101906101689190611875565b6104b9565b60405161017a91906118e3565b60405180910390f35b61019d6004803603810190610198919061192a565b6104d5565b005b6101b960048036038101906101b4919061196a565b6104eb565b005b6101d560048036038101906101d0919061196a565b6105ed565b005b6101f160048036038101906101ec9190611875565b61060d565b6040516101fe91906118e3565b60405180910390f35b610221600480360381019061021c91906119bd565b61061f565b005b61023d600480360381019061023891906119bd565b610646565b60405161024a91906119f9565b60405180910390f35b61025b610700565b60405161026891906119f9565b60405180910390f35b610279610706565b604051610286919061181d565b60405180910390f35b6102a960048036038101906102a49190611a40565b610798565b005b6102c560048036038101906102c09190611bb5565b6107ae565b005b6102e160048036038101906102dc9190611875565b6107d3565b6040516102ee919061181d565b60405180910390f35b6102ff610836565b60405161030c919061181d565b60405180910390f35b61032f600480360381019061032a9190611c38565b6108c4565b60405161033c9190611772565b60405180910390f35b60007f80ac58cd000000000000000000000000000000000000000000000000000000007bffffffffffffffffffffffffffffffffffffffffffffffffffffffff1916827bffffffffffffffffffffffffffffffffffffffffffffffffffffffff1916148061041057507f5b5e139f000000000000000000000000000000000000000000000000000000007bffffffffffffffffffffffffffffffffffffffffffffffffffffffff1916827bffffffffffffffffffffffffffffffffffffffffffffffffffffffff1916145b80610420575061041f82610958565b5b9050919050565b60606000805461043690611ca7565b80601f016020809104026020016040519081016040528092919081815260200182805461046290611ca7565b80156104af5780601f10610484576101008083540402835291602001916104af565b820191906000526020600020905b81548152906001019060200180831161049257829003601f168201915b5050505050905090565b60006104c4826109c2565b506104ce82610a4a565b9050919050565b6104e782826104e2610a87565b610a8f565b5050565b600073ffffffffffffffffffffffffffffffffffffffff168273ffffffffffffffffffffffffffffffffffffffff160361055d5760006040517f64a0ae9200000000000000000000000000000000000000000000000000000000815260040161055491906118e3565b60405180910390fd5b6000610571838361056c610a87565b610aa1565b90508373ffffffffffffffffffffffffffffffffffffffff168173ffffffffffffffffffffffffffffffffffffffff16146105e7578382826040517f64283d7b0000000000000000000000000000000000000000000000000000000081526004016105de93929190611cd8565b60405180910390fd5b50505050565b610608838383604051806020016040528060008152506107ae565b505050565b6000610618826109c2565b9050919050565b61062b81600654610cbb565b6006600081548092919061063e90611d3e565b919050555050565b60008073ffffffffffffffffffffffffffffffffffffffff168273ffffffffffffffffffffffffffffffffffffffff16036106b95760006040517f89c62b640000000000000000000000000000000000000000000000000000000081526004016106b091906118e3565b60405180910390fd5b600360008373ffffffffffffffffffffffffffffffffffffffff1673ffffffffffffffffffffffffffffffffffffffff168152602001908152602001600020549050919050565b60065481565b60606001805461071590611ca7565b80601f016020809104026020016040519081016040528092919081815260200182805461074190611ca7565b801561078e5780601f106107635761010080835404028352916020019161078e565b820191906000526020600020905b81548152906001019060200180831161077157829003601f168201915b5050505050905090565b6107aa6107a3610a87565b8383610cd9565b5050565b6107b98484846104eb565b6107cd6107c4610a87565b85858585610e48565b50505050565b60606107de826109c2565b5060006107ea83610ff9565b6040516020016107fa9190611e0e565b604051602081830303815290604052905060078160405160200161081f929190611ec8565b604051602081830303815290604052915050919050565b6007805461084390611ca7565b80601f016020809104026020016040519081016040528092919081815260200182805461086f90611ca7565b80156108bc5780601f10610891576101008083540402835291602001916108bc565b820191906000526020600020905b81548152906001019060200180831161089f57829003601f168201915b505050505081565b6000600560008473ffffffffffffffffffffffffffffffffffffffff1673ffffffffffffffffffffffffffffffffffffffff16815260200190815260200160002060008373ffffffffffffffffffffffffffffffffffffffff1673ffffffffffffffffffffffffffffffffffffffff16815260200190815260200160002060009054906101000a900460ff16905092915050565b60007f01ffc9a7000000000000000000000000000000000000000000000000000000007bffffffffffffffffffffffffffffffffffffffffffffffffffffffff1916827bffffffffffffffffffffffffffffffffffffffffffffffffffffffff1916149050919050565b6000806109ce836110c7565b9050600073ffffffffffffffffffffffffffffffffffffffff168173ffffffffffffffffffffffffffffffffffffffff1603610a4157826040517f7e273289000000000000000000000000000000000000000000000000000000008152600401610a3891906119f9565b60405180910390fd5b80915050919050565b60006004600083815260200190815260200160002060009054906101000a900473ffffffffffffffffffffffffffffffffffffffff169050919050565b600033905090565b610a9c8383836001611104565b505050565b600080610aad846110c7565b9050600073ffffffffffffffffffffffffffffffffffffffff168373ffffffffffffffffffffffffffffffffffffffff1614610aef57610aee8184866112c9565b5b600073ffffffffffffffffffffffffffffffffffffffff168173ffffffffffffffffffffffffffffffffffffffff1614610b8057610b31600085600080611104565b6001600360008373ffffffffffffffffffffffffffffffffffffffff1673ffffffffffffffffffffffffffffffffffffffff168152602001908152602001600020600082825403925050819055505b600073ffffffffffffffffffffffffffffffffffffffff168573ffffffffffffffffffffffffffffffffffffffff1614610c03576001600360008773ffffffffffffffffffffffffffffffffffffffff1673ffffffffffffffffffffffffffffffffffffffff168152602001908152602001600020600082825401925050819055505b846002600086815260200190815260200160002060006101000a81548173ffffffffffffffffffffffffffffffffffffffff021916908373ffffffffffffffffffffffffffffffffffffffff160217905550838573ffffffffffffffffffffffffffffffffffffffff168273ffffffffffffffffffffffffffffffffffffffff167fddf252ad1be2c89b69c2b068fc378daa952ba7f163c4a11628f55a4df523b3ef60405160405180910390a4809150509392505050565b610cd582826040518060200160405280600081525061138d565b5050565b600073ffffffffffffffffffffffffffffffffffffffff168273ffffffffffffffffffffffffffffffffffffffff1603610d4a57816040517f5b08ba18000000000000000000000000000000000000000000000000000000008152600401610d4191906118e3565b60405180910390fd5b80600560008573ffffffffffffffffffffffffffffffffffffffff1673ffffffffffffffffffffffffffffffffffffffff16815260200190815260200160002060008473ffffffffffffffffffffffffffffffffffffffff1673ffffffffffffffffffffffffffffffffffffffff16815260200190815260200160002060006101000a81548160ff0219169083151502179055508173ffffffffffffffffffffffffffffffffffffffff168373ffffffffffffffffffffffffffffffffffffffff167f17307eab39ab6107e8899845ad3d59bd9653f200f220920489ca2b5937696c3183604051610e3b9190611772565b60405180910390a3505050565b60008373ffffffffffffffffffffffffffffffffffffffff163b1115610ff2578273ffffffffffffffffffffffffffffffffffffffff1663150b7a02868685856040518563ffffffff1660e01b8152600401610ea79493929190611f41565b6020604051808303816000875af1925050508015610ee357506040513d601f19601f82011682018060405250810190610ee09190611fa2565b60015b610f67573d8060008114610f13576040519150601f19603f3d011682016040523d82523d6000602084013e610f18565b606091505b506000815103610f5f57836040517f64a0ae92000000000000000000000000000000000000000000000000000000008152600401610f5691906118e3565b60405180910390fd5b805181602001fd5b63150b7a0260e01b7bffffffffffffffffffffffffffffffffffffffffffffffffffffffff1916817bffffffffffffffffffffffffffffffffffffffffffffffffffffffff191614610ff057836040517f64a0ae92000000000000000000000000000000000000000000000000000000008152600401610fe791906118e3565b60405180910390fd5b505b5050505050565b606060006001611008846113b1565b01905060008167ffffffffffffffff81111561102757611026611a8a565b5b6040519080825280601f01601f1916602001820160405280156110595781602001600182028036833780820191505090505b509050600082602001820190505b6001156110bc578080600190039150507f3031323334353637383961626364656600000000000000000000000000000000600a86061a8153600a85816110b0576110af611fcf565b5b04945060008503611067575b819350505050919050565b60006002600083815260200190815260200160002060009054906101000a900473ffffffffffffffffffffffffffffffffffffffff169050919050565b808061113d5750600073ffffffffffffffffffffffffffffffffffffffff168273ffffffffffffffffffffffffffffffffffffffff1614155b1561127157600061114d846109c2565b9050600073ffffffffffffffffffffffffffffffffffffffff168373ffffffffffffffffffffffffffffffffffffffff16141580156111b857508273ffffffffffffffffffffffffffffffffffffffff168173ffffffffffffffffffffffffffffffffffffffff1614155b80156111cb57506111c981846108c4565b155b1561120d57826040517fa9fbf51f00000000000000000000000000000000000000000000000000000000815260040161120491906118e3565b60405180910390fd5b811561126f57838573ffffffffffffffffffffffffffffffffffffffff168273ffffffffffffffffffffffffffffffffffffffff167f8c5be1e5ebec7d5bd14f71427d1e84f3dd0314c0f7b2291e5b200ac8c7c3b92560405160405180910390a45b505b836004600085815260200190815260200160002060006101000a81548173ffffffffffffffffffffffffffffffffffffffff021916908373ffffffffffffffffffffffffffffffffffffffff16021790555050505050565b6112d4838383611504565b61138857600073ffffffffffffffffffffffffffffffffffffffff168373ffffffffffffffffffffffffffffffffffffffff160361134957806040517f7e27328900000000000000000000000000000000000000000000000000000000815260040161134091906119f9565b60405180910390fd5b81816040517f177e802f00000000000000000000000000000000000000000000000000000000815260040161137f929190611ffe565b60405180910390fd5b505050565b61139783836115c5565b6113ac6113a2610a87565b6000858585610e48565b505050565b600080600090507a184f03e93ff9f4daa797ed6e38ed64bf6a1f010000000000000000831061140f577a184f03e93ff9f4daa797ed6e38ed64bf6a1f010000000000000000838161140557611404611fcf565b5b0492506040810190505b6d04ee2d6d415b85acef8100000000831061144c576d04ee2d6d415b85acef8100000000838161144257611441611fcf565b5b0492506020810190505b662386f26fc10000831061147b57662386f26fc10000838161147157611470611fcf565b5b0492506010810190505b6305f5e10083106114a4576305f5e100838161149a57611499611fcf565b5b0492506008810190505b61271083106114c95761271083816114bf576114be611fcf565b5b0492506004810190505b606483106114ec57606483816114e2576114e1611fcf565b5b0492506002810190505b600a83106114fb576001810190505b80915050919050565b60008073ffffffffffffffffffffffffffffffffffffffff168373ffffffffffffffffffffffffffffffffffffffff16141580156115bc57508273ffffffffffffffffffffffffffffffffffffffff168473ffffffffffffffffffffffffffffffffffffffff16148061157d575061157c84846108c4565b5b806115bb57508273ffffffffffffffffffffffffffffffffffffffff166115a383610a4a565b73ffffffffffffffffffffffffffffffffffffffff16145b5b90509392505050565b600073ffffffffffffffffffffffffffffffffffffffff168273ffffffffffffffffffffffffffffffffffffffff16036116375760006040517f64a0ae9200000000000000000000000000000000000000000000000000000000815260040161162e91906118e3565b60405180910390fd5b600061164583836000610aa1565b9050600073ffffffffffffffffffffffffffffffffffffffff168173ffffffffffffffffffffffffffffffffffffffff16146116b95760006040517f73c6ac6e0000000000000000000000000000000000000000000000000000000081526004016116b091906118e3565b60405180910390fd5b505050565b6000604051905090565b600080fd5b600080fd5b60007fffffffff0000000000000000000000000000000000000000000000000000000082169050919050565b611707816116d2565b811461171257600080fd5b50565b600081359050611724816116fe565b92915050565b6000602082840312156117405761173f6116c8565b5b600061174e84828501611715565b91505092915050565b60008115159050919050565b61176c81611757565b82525050565b60006020820190506117876000830184611763565b92915050565b600081519050919050565b600082825260208201905092915050565b60005b838110156117c75780820151818401526020810190506117ac565b60008484015250505050565b6000601f19601f8301169050919050565b60006117ef8261178d565b6117f98185611798565b93506118098185602086016117a9565b611812816117d3565b840191505092915050565b6000602082019050818103600083015261183781846117e4565b905092915050565b6000819050919050565b6118528161183f565b811461185d57600080fd5b50565b60008135905061186f81611849565b92915050565b60006020828403121561188b5761188a6116c8565b5b600061189984828501611860565b91505092915050565b600073ffffffffffffffffffffffffffffffffffffffff82169050919050565b60006118cd826118a2565b9050919050565b6118dd816118c2565b82525050565b60006020820190506118f860008301846118d4565b92915050565b611907816118c2565b811461191257600080fd5b50565b600081359050611924816118fe565b92915050565b60008060408385031215611941576119406116c8565b5b600061194f85828601611915565b925050602061196085828601611860565b9150509250929050565b600080600060608486031215611983576119826116c8565b5b600061199186828701611915565b93505060206119a286828701611915565b92505060406119b386828701611860565b9150509250925092565b6000602082840312156119d3576119d26116c8565b5b60006119e184828501611915565b91505092915050565b6119f38161183f565b82525050565b6000602082019050611a0e60008301846119ea565b92915050565b611a1d81611757565b8114611a2857600080fd5b50565b600081359050611a3a81611a14565b92915050565b60008060408385031215611a5757611a566116c8565b5b6000611a6585828601611915565b9250506020611a7685828601611a2b565b9150509250929050565b600080fd5b600080fd5b7f4e487b7100000000000000000000000000000000000000000000000000000000600052604160045260246000fd5b611ac2826117d3565b810181811067ffffffffffffffff82111715611ae157611ae0611a8a565b5b80604052505050565b6000611af46116be565b9050611b008282611ab9565b919050565b600067ffffffffffffffff821115611b2057611b1f611a8a565b5b611b29826117d3565b9050602081019050919050565b82818337600083830152505050565b6000611b58611b5384611b05565b611aea565b905082815260208101848484011115611b7457611b73611a85565b5b611b7f848285611b36565b509392505050565b600082601f830112611b9c57611b9b611a80565b5b8135611bac848260208601611b45565b91505092915050565b60008060008060808587031215611bcf57611bce6116c8565b5b6000611bdd87828801611915565b9450506020611bee87828801611915565b9350506040611bff87828801611860565b925050606085013567ffffffffffffffff811115611c2057611c1f6116cd565b5b611c2c87828801611b87565b91505092959194509250565b60008060408385031215611c4f57611c4e6116c8565b5b6000611c5d85828601611915565b9250506020611c6e85828601611915565b9150509250929050565b7f4e487b7100000000000000000000000000000000000000000000000000000000600052602260045260246000fd5b60006002820490506001821680611cbf57607f821691505b602082108103611cd257611cd1611c78565b5b50919050565b6000606082019050611ced60008301866118d4565b611cfa60208301856119ea565b611d0760408301846118d4565b949350505050565b7f4e487b7100000000000000000000000000000000000000000000000000000000600052601160045260246000fd5b6000611d498261183f565b91507fffffffffffffffffffffffffffffffffffffffffffffffffffffffffffffffff8203611d7b57611d7a611d0f565b5b600182019050919050565b600081905092915050565b7f2f6170692f6d657461646174612f000000000000000000000000000000000000600082015250565b6000611dc7600e83611d86565b9150611dd282611d91565b600e82019050919050565b6000611de88261178d565b611df28185611d86565b9350611e028185602086016117a9565b80840191505092915050565b6000611e1982611dba565b9150611e258284611ddd565b915081905092915050565b60008190508160005260206000209050919050565b60008154611e5281611ca7565b611e5c8186611d86565b94506001821660008114611e775760018114611e8c57611ebf565b60ff1983168652811515820286019350611ebf565b611e9585611e30565b60005b83811015611eb757815481890152600182019150602081019050611e98565b838801955050505b50505092915050565b6000611ed48285611e45565b9150611ee08284611ddd565b91508190509392505050565b600081519050919050565b600082825260208201905092915050565b6000611f1382611eec565b611f1d8185611ef7565b9350611f2d8185602086016117a9565b611f36816117d3565b840191505092915050565b6000608082019050611f5660008301876118d4565b611f6360208301866118d4565b611f7060408301856119ea565b8181036060830152611f828184611f08565b905095945050505050565b600081519050611f9c816116fe565b92915050565b600060208284031215611fb857611fb76116c8565b5b6000611fc684828501611f8d565b91505092915050565b7f4e487b7100000000000000000000000000000000000000000000000000000000600052601260045260246000fd5b600060408201905061201360008301856118d4565b61202060208301846119ea565b939250505056fea2646970667358221220ac2982ad7bdd59d739469509aabeb4c4c4509182da02234227284b316214c24664736f6c63430008140033",
  "linkReferences": {},
  "deployedLinkReferences": {}
}